:020000040800F2
:1000000008160020A1010008C9430008813A000831
:10001000853E000861160008314D00080000000010
:100020000000000000000000000000009F460008E3
:100030002D170008000000009D460008C946000872
:10004000BB010008BB010008BB010008BB010008A0
:10005000BB010008BB010008BB010008BB01000890
:10006000BB010008BB010008BB010008BB01000880
:10007000BB01000865160008BB010008BB010008B1
:1000800071160008BB010008BB010008BB01000895
:10009000BB010008BB010008BB010008BB01000850
:1000A000BB010008BB010008BB010008BB01000840
:1000B000BB010008BB010008BB010008BB01000830
:1000C000BB010008BB010008BB010008BB01000820
:1000D000BB010008BB010008B14C0008BB010008CF
:1000E000BB010008BB010008BB010008BB01000800
:1000F000BB010008BB010008BB010008BB010008F0
:10010000BB010008BB010008BB010008BB010008DF
:10011000BB010008BB010008BB010008BB010008CF
:100120007D160008BB010008BB010008BB010008E8
:10013000BB010008BB010008BB010008BB010008AF
:10014000BB010008BB010008BB010008BB0100089F
:10015000BB010008BB010008BB010008BB0100088F
:10016000BB010008BB010008BB010008BB0100087F
:10017000BB010008BB010008BB0100080000000033
:10018000BB010008BB010008DFF810D000F07EFEC4
:1001900000480047115F0008AFF3008008160020F8
:1001A0000648804706480047FEE7FEE7FEE7FEE711
:1001B000FEE7FEE7FEE7FEE7FEE7FEE7654700082D
:1001C000890100082DE9F05F0546002092469B4614
:1001D00088460646814640241BE02846414647465D
:1001E000224600F036FD53465A46C01A914110D3BC
:1001F00011461846224600F01DFD2D1A67EB010836
:100200004F4622460120002100F014FD17EB0009A3
:100210004E41201EA4F10104DFDC484631462A4647
:100220004346BDE8F09FA0F14101192900D82030D4
:10023000704740EA01039B0703D009E008C9121F79
:1002400008C0042AFAD203E011F8013B00F8013B90
:10025000521EF9D27047D2B201E000F8012B491EBC
:10026000FBD270470022F6E710B513460A46044653
:100270001946FFF7F0FF204610BD30B505462A4667
:100280000B4612F8010B13F8014B08B1A042F8D04D
:100290001CB1002802D06D1CF1E7284630BD421C7D
:1002A00010F8011B0029FBD1801A704710B50022FD
:1002B00000E0521C835C8C5CA34201D1002BF8D17E
:1002C000D8B2E1B2401A10BD034611F8012B00F874
:1002D000012B002AF9D11846704700000FB400B571
:1002E0008DB010A909900B9000914FF0FF300A904B
:1002F00000200C9005480690054807906A4609A81A
:100300000F9900F0DDFC0DB05DF814FBDD0C00086A
:10031000FB0C00082DE9FF5F1D464FF0FF3BD5E9C0
:10032000014691465F464FF00008A9697F1C01987D
:100330008847296A824688470028F6D1BAF1FF3FEC
:100340000CD024F4C064002E19DD600614D5BAF177
:100350002B0F09D0BAF12D0F0ED103E0584604B08F
:10036000BDE8F09F44F48064A9697F1C0198884728
:10037000761E8246002E02DDBAF1300F03D0B9F1AD
:10038000000F26D032E0A969761E44F400747F1C69
:10039000019888478246002E05DDBAF1780F06D015
:1003A000BAF1580F03D0B9F1000F10D01EE0B9F127
:1003B000000F02D0B9F1100F18D1A969761E24F4EC
:1003C00000747F1C019888478246102002E00820B4
:1003D00000E00A20814609E008FB0908A969761EA9
:1003E00044F400747F1C019888478246002E05DD86
:1003F0004946504600F04FFC0028EDDAE9690198C3
:100400008847A00502D46FF00100A8E7E00725D1D6
:10041000600613D5600502D5C8F1000000E0404633
:1004200029680A1D2A600968220501D5087015E0AF
:10043000220701D5088011E008600FE02868011D3F
:1004400029600068210502D580F8008006E02107B8
:1004500002D5A0F8008001E0C0F8008038467EE7B1
:100460002DE9FF4F087883B09946FF2805D0491C35
:100470002D2804D00024002008E000200BE00124F7
:10048000F9E700EB800003EB4000491C0B78FF2BE1
:10049000F7D104B1404200230293147819461D4657
:1004A0002D2C01D02B2C04D1521C2D2C13D0002428
:1004B0000294AA461478FF2C0FD00A25A3FB0578D6
:1004C00001FB05814FF0000C03FB0C11521CE319DA
:1004D0004AEB0101EEE70124EAE7814453EA010017
:1004E00002D019F5C87F06DA03980021C0E900118F
:1004F00007B0BDE8F08F0025AE4E2F46DFF8B8827A
:10050000184600F09FFCCDE90001B9F1000002DAC5
:10051000C9F1000400E004460023A74A1AEB030BCC
:1005200042EB045A12E0E00707D02A463346384629
:10053000414600F0ECF9074688462A463346104605
:10054000194600F0E4F905460E466410002CEAD185
:10055000DDE90001B9F1000F5A46534606DA00F012
:1005600048FA3A46434600F044FA05E000F0CFF975
:100570003A46434600F0CBF9029A0AB181F00041B5
:10058000039AC2E90001B3E72DE9FF4F1F468DB082
:10059000D7E901464FF0FF382E2045464FF00009BD
:1005A0000B90B9696D1C0E988847396A8246884756
:1005B0000028F6D1BAF1FF3F0AD024F4D064002E0F
:1005C00011DDBAF12B0F08D0BAF12D0F0BD102E0DB
:1005D000404611B08DE744F48064B9696D1C0E98F3
:1005E00088478246761E6946600501D52D2000E0C9
:1005F0002B208DF8000001F1010B0DF1200809E01E
:10060000B9696D1C0E98884782460F9844F40074AF
:10061000761E0560002E02DDBAF1300FF0D00B9986
:100620008A453ED144F0800406E00F99681CA9F188
:10063000010944F400740860B9696D1C761E0E98B7
:10064000884782463028F0D02BE00B998A4505D1A7
:10065000200603D444F08004761E18E0504604F0CF
:1006600075FD08B30DF11301761E44F400748B453B
:1006700008D2AAF130000BF8010B200607D5A9F12A
:10068000010003E0200602D409F101008146A00523
:1006900002D50F99681C0860B9696D1C0E988847CF
:1006A0008246002ED1DC53E0002E51DDBAF1650FF9
:1006B00002D0BAF1450F4BD1A00549D5B9696D1CDF
:1006C00024F44074761E0E9888478246002E0CDD76
:1006D0002B2804D0BAF12D0F07D144F48074B969E6
:1006E0006D1C0E9888478246761EE00501D52D21A7
:1006F00000E02B2108F8011BCDF82C8021E00DF142
:100700002901761E44F4007488450CD2AAF1300009
:1007100010F0FF0088F8000002D10B99884509D934
:1007200008F1010806E0E00501D5244801E042F2A5
:100730000F708146B9696D1C0E98884782460F98E4
:100740000560002E04DD504604F000FD0028D6D1DF
:10075000F9690E988847FF208BF8000088F80000A0
:100760000020069007904B466A4608A906A8FFF7A6
:1007700077FEA00502D46FF001002AE714F0240FE1
:100780000AD0E00714D1DDE906123868031D3B608A
:100790000068C0E900120BE0DDE9060100F018FA7C
:1007A0000146E00704D13868021D3A600068016024
:1007B00028460EE7000014400000F03FF1D8FFFF8C
:1007C0002DE9FE4F804681EA0300C00F0C460090E1
:1007D00021F0004123F00045B8EB0200A94105D209
:1007E0004046214690461C460B46024623F00040F8
:1007F000104347D0270DC7F30A00C3F30A510290F4
:10080000401A019040286BDAC3F3130040F4801BB8
:100810000098924620B10023D2EB030A63EB0B0B46
:1008200001985946C0F14002504600F003FA0646CE
:100830000D4650465946019A00F01BFA10EB08008D
:100840006141002487EA115284EAE7731A4340D0D9
:10085000009A62B3019A012A4FEA075215DC001B85
:1008600061EB02014FF0004202EA0752CDE900427B
:10087000001C41F5801132462B4600F095FA03B07A
:10088000BDE8F08F40462146F9E7001B61EB02010D
:10089000001C41F5801300185B412018A2F50017D9
:1008A00047EB030140EAD570B6196D4111E06D08C0
:1008B0004FEA360645EAC0754FEA0752001B61EB66
:1008C0000201001C41F5801149084FEA300000196F
:1008D000514132462B4603B0BDE8F04F00F055BA07
:1008E0000098012240000023D0EB020263EBE0738A
:1008F000009821464FEAE074B8EB000061EB040178
:10090000E9E783F000435BE781F0004158E72DE918
:10091000FE4F81EA030404F0004421F000410094FA
:100920004FF0000B23F0004350EA01045ED052EA7E
:1009300003045BD0C3F30A54C1F30A552C44A4F258
:10094000F3340194A0FB0254C1F3130141F480116C
:10095000C3F3130343F4801301FB024400FB034E73
:10096000840A970A44EA815447EA8357A4FB07683C
:1009700002958D0A05FB07854FEA932C04FB0C5466
:100980002705029D4FEA065847EA1637B5EB0805DA
:100990006EEB070C870E920E47EA811742EA83122C
:1009A000A7FB0201B6EB0B0164EB00042B0D43EA3D
:1009B0000C335E1844EB1C50DA465146E7FB02014B
:1009C000C5F313044FEA0B3343EA14534FEA0432DE
:1009D000019C43EA0603A4F10C040294009CCDE9B7
:1009E00000B400F0E1F903B0BDE8F08F002001464B
:1009F000F9E72DE9F04D81EA030404F0004B21F002
:100A0000004514464FF0000A23F0004150EA050269
:100A100020D054EA01021DD0C5F30A570246C5F39F
:100A20001303C1F31300C1F30A5640F4801543F4D5
:100A30008013A7EB0608101BD64608F2FD3873EBAF
:100A4000050002D308F1010801E092185B41B8F1FA
:100A5000000F03DA00200146BDE8F08D00204FF4BE
:100A60008011064684460EE0171B73EB050705D37D
:100A7000121B63EB050306434CEA010C49084FEADD
:100A8000300092185B4150EA0107EDD152EA0300B1
:100A900012D082EA040083EA0501084305D0101B46
:100AA000AB4106D20122002306E000224FF00043B2
:100AB00002E06FF0010253101AEB06004CEB0851F4
:100AC00010EB0A0041EB0B01BDE8F04D00F05DB901
:100AD0000EB5C10F80EAE0700844CA07002140F259
:100AE00033438DE80E000A460B4600F05DF903B073
:100AF00000BD0EB540F2334102910021CDE9001155
:100B00000A460B4600F050F903B000BD70B5C1F3C2
:100B10000A5201F000450024C1F3130140F2FF33F3
:100B200041F480119A4201DA002070BD40F2334353
:100B30009A42A2F2334203DC524200F08AF800E00B
:100B400090402C43F1D0404270BD00F0004230F0A4
:100B500000400AD0C10D01F56071C0F3160042EAF1
:100B60000151C208400711437047002001467047F9
:100B700030B5041E71F1000404DB4FF00044404224
:100B800064EB0101141E73F1000405DB1C464FF0F9
:100B90000043524263EB04038B4208BF824230BDE4
:100BA00030B5041E71F1000404DB4FF000444042F4
:100BB00064EB0101141E73F1000405DB1C464FF0C9
:100BC0000043524263EB0403994208BF904230BD98
:100BD00001F0004330B421F0004150EA010206D098
:100BE0000A0DA2F56072C1F31301002A02DC30BCC9
:100BF00000207047440F44EAC104C100E01830BC33
:100C000000EBC25000F08AB830B50B460146002018
:100C10002022012409E021FA02F59D4205D303FABE
:100C200002F5491B04FA02F52844151EA2F101023F
:100C3000F1DC30BD202A04DB203A00FA02F100206A
:100C400070479140C2F1200320FA03F3194390400A
:100C50007047202A04DB203A21FA02F00021704775
:100C600021FA02F3D040C2F1200291400843194614
:100C70007047202A06DBCB17203A41FA02F043EAFC
:100C8000E07306E041FA02F3D040C2F12002914045
:100C90000843194670473A2800D2303820F0200225
:100CA000412A01D3A2F13700884201D34FF0FF302F
:100CB00070470000026811441378016018467047BD
:100CC000D16004495161044911620021116111464A
:100CD00000F0F4B8B50C0008B10E0008426842B14B
:100CE000016811F8013B23B1521EC0E900121846F9
:100CF00070470121C160881E704742685AB1C368BD
:100D0000016843B983688B4205D0491E521CC0E973
:100D10000012002070474FF0FF3070470029A8BF35
:100D20007047401C490008BF20F00100704710B414
:100D3000B0FA80FC00FA0CF050EA010404BF10BCC9
:100D4000704749B1CCF1200421FA04F411FA0CF1F6
:100D500018BF012121430843A3EB0C01CB1D4FEA2F
:100D600000614FEA102042BF002010BC704700EB2A
:100D7000C35010440029A4BF10BC7047401C490058
:100D800008BF20F0010010BC704710B5141E73F1AD
:100D9000000408DA401C41F1000192185B411A433B
:100DA00001D120F0010010BD2DE9F04D92469B4687
:100DB00011B1B1FA81F202E0B0FA80F2203290462D
:100DC000FFF738FF04460F4640EA0A0041EA0B01EC
:100DD00053465A46084313D0114653EA010019D02E
:100DE000C8F140025046FFF734FF05460E46504614
:100DF00059464246FFF71EFF084305D0012004E094
:100E000020463946BDE8F08D0020054346EAE076ED
:100E10002C4337430A986305E40AA0EB080000223C
:100E2000FD0A44EA47540A3002D500200146E9E7AA
:100E3000010510196941DDE9084500196941BDE85E
:100E4000F04DA2E70EB540F2334202920022CDE906
:100E500000221346FFF7A8FF03B000BDC1F30A52FA
:100E6000C1F3130140F2FF3341F480119A4202DAD8
:100E700000200146704740F233439A42A2F23342C7
:100E800002DC5242FFF7E5BEFFF7D4BE064C074D29
:100E900006E0E06840F0010394E80700984710344A
:100EA000AC42F6D3FFF774F9D4670008F467000882
:100EB000C0B24FF4F05100F099B900002DE9F34FA2
:100EC0008BB04FF0000801F10C000C464FF0010B05
:100ED00046460DF1080A0190626901210198904788
:100EE000051E2DD0252D2CD0216A8847C0B16269FE
:100EF000012101989047216A88470028F7D1411EB7
:100F000062690198904700E0761CA1690B988847B8
:100F1000216A88470028F7D1E1690B988847DBE709
:100F2000A1690B9888470746A84201D1761CD3E7F0
:100F3000E1690B9888477F1C02D1B8F1000F6FD090
:100F400047E1002762693D463946019890472A28C3
:100F500004D162690121019890470125DFF8889248
:100F60006269012101989047A0F130010A290AD253
:100F70004F45E5DC07EB870100EB4107303FDFD44D
:100F800045F01005ECE7E90601D46FF000476C2846
:100F90000AD04C2814D0682815D06A280DD074289F
:100FA0001CD07A281AD01DE062690121019890476F
:100FB0006C2802D045F0040514E045F002050DE070
:100FC00045F020050AE062690121019890476828F0
:100FD00002D045F0080505E045F40065626901218D
:100FE00001989047C4E9015765283DD019DC58287D
:100FF0007AD00CDC452837D004DC252826D04128BF
:1010000031D131E046282FD047282CD12CE05B2865
:1010100077D0612828D063287CD0642823D15AE077
:10102000D1E06F2848D008DC66281DD067281BD087
:10103000692821D06E2816D127E0702845D0732862
:1010400068D0752847D078280DD14DE0A1690B985C
:101050008847054625283FF469AFE1690B98884722
:101060006D1C3FF46AAFB4E023466A466FF001009E
:101070000B99FFF789FA9FE045F040006060A807F0
:1010800023464FF0000236D43EE0E8077FF447AF36
:101090002068011D21600068290501D506701BE745
:1010A000290701D5068017E7A90703D5F117C0E97D
:1010B000006111E706600FE745F040006060A80797
:1010C00023464FF0080216D41EE040F60E0125EA32
:1010D0000100606016E045F040006060A80723460C
:1010E0004FF00A0207D40FE045F040006060A80707
:1010F00008D5234610226FF001000B99AFF3008052
:101100005AE007E0234610226FF001000B99FFF729
:1011100001F951E04FF000094F464B46632802D0D9
:101120005B2807D041E02079C00601D40120A060EF
:1011300001273AE062690121019890475E2805D1B4
:101140004FF001096269494601989047216939B910
:1011500000210A46534643F82120491C0829FADB9E
:10116000B0B3216969B9C11700EBD16253110AEB21
:10117000830122F01F02821A01200B689040034372
:101180000B6062690121019890475D28E8D1B9F1AF
:10119000000F09D00020514651F82020D24341F8D9
:1011A0002020401C0828F7DB02AB224600976FF096
:1011B00001000B99AFF3008000280CDA401C08D125
:1011C000BBF1000F05D04FF0FF300DB0BDE8F08F40
:1011D000FFE74046F9E7E90701D108F101080644B5
:1011E0004FF0000B78E60000CCCCCC0C7F2801D966
:1011F000002208E0064A02EB5002C007127800D134
:10120000120902F00F0201209040084070470000D0
:101210005067000810B50146806B026C12F0500F49
:1012200005D0026CD20626D500F0DEFF10BD016CA1
:1012300041F40071016401688A6812F0405F17D1BF
:10124000027EAAB9CA6A12F4700F02D08A685205E7
:101250000ED44A6822F020024A60016C21F48071A9
:101260000164016CC90403D4016C41F00101016403
:1012700000F0B8FF10BD806BC26CBDE8104008469E
:10128000104710B5806B40210164416C41F00401AE
:10129000416400F0A9FF10BD10B5806B00F0A3FF02
:1012A00010BD0000464910B54A6822F440324A6039
:1012B0004A6843681A434A6001684A6822F48072A7
:1012C0004A6001684A68036942EA03224A60016889
:1012D0004A6822F040724A6001684A6883681A438B
:1012E0004A6001688A6822F400628A6001688A683C
:1012F000C3681A438A60816A6FF07062D1420168E4
:101300008A6822F070628A6001688A680CD0836AF9
:101310001A438A6001688A6822F040528A60016834
:101320008A68C36A1A4301E022F040528A60016869
:101330008A6822F002028A6001688A68037E42EAB3
:1013400043028A6090F82010002901684A680FD093
:1013500042F400624A6001684A6822F460424A60CE
:1013600001684A68174C436A04EB43331A4301E0AF
:1013700022F400624A600168CA6A22F47002CA62FA
:101380000168CA6A838B104C04EB03531A43CA6288
:1013900001688A6822F400728A6001688A6890F89D
:1013A000303042EA43228A6001688A6822F480620F
:1013B0008A6001688A68406942EA8020886010BDBE
:1013C0000023014000E0FFFF0000F0FF70B5644C17
:1013D00064A02DED028B218805F0E8F8618865A0F6
:1013E00005F0E4F8608800EE100AB8EE400A9FEDC0
:1013F000668A20EE080ADFED658AC0EE280A9FEDB6
:10140000640A644D20EE800A85ED030ADFED620A6E
:10141000624820EE200A80ED000A10EE100AFFF765
:1014200094FB41EC100B5EA053EC102B05F0BEF8C2
:10143000A1885FA005F0BAF8A0884FF4B4714843C2
:1014400040F6B211B0FBF1F000EE100AB8EE400A1F
:1014500085ED030A05F060F95A4880ED000A10EEA8
:10146000100AFFF772FB41EC100B57A053EC102B46
:1014700005F09CF8E18858A005F098F8E08800EEA7
:10148000100AB8EE400A60EE080A80EEA80ADFED06
:10149000570A60EE200A80EE880A85ED030A05F0FF
:1014A00021F9534880ED000A10EE100AFFF74DFBBA
:1014B00041EC100B4FA053EC102B05F077F821896D
:1014C00050A005F073F8208900EE100AB8EE400A2B
:1014D00060EE080A80EEA80A10EE100AFFF735FB4E
:1014E0009FED4D1B53EC112BFFF711FA9FED4C1B99
:1014F00053EC112BFFF764F9FFF76AFB00EE100ABB
:1015000085ED030A02F0E6FF474880ED000A10EE81
:10151000100AFFF71AFB41EC100B44A053EC102B00
:1015200005F044F8618944A005F040F8608900EEB8
:10153000100AB8EE400A60EE080A80EEA80A85EDAF
:10154000030A05F057F8BDEEC00A404810EE101A25
:1015500001603FA0BDEC028BBDE8704005F026B8ED
:10156000940000205858B4ABB8D0C6F73A20256490
:101570000D0A0000B7E7CBD9B4ABB8D0C6F73A2014
:1015800025642020202020003333534000F07F4585
:1015900000007A44000000201B2FDD3C3C000020AE
:1015A000B7E7CBD9D6B53A2025660D0A0000000072
:1015B000B7E7CFF2B4ABB8D0C6F73A202564202005
:1015C0002020200040000020B7E7CFF2D6B53A2017
:1015D00025660D0A00000000D7C7B6C8B4ABB8D066
:1015E000C6F73A2025642020202020000000C842B1
:1015F00044000020D7C7B6C8D6B53A2025660D0AE4
:10160000000000005048B4ABB8D0C6F73A202564BB
:1016100020202020200000003F355EBA498C17C0F2
:10162000355EBA490C423540480000205048D6B5D6
:101630003A2025660D0A0000D3EAB5CEB4ABB8D087
:10164000C6F73A2025642020202020004C000020EE
:10165000D3EAB5CEB5C8BCB63A2025660D0A00005F
:10166000FEE70000014800F03DBF0000D804002064
:10167000014800F037BF000038050020014800F0A5
:1016800031BF0000E800002001681823CAB2103AF8
:10169000B2FBF3F2054B6FF30901032A9B5CC365B0
:1016A00000D9091D816508467047000030670008B1
:1016B00010B5014600208B698A6A4FF0C07453B19F
:1016C000B3F5005F15D072B1012A0CD0022A0AD0FE
:1016D000032A09D104E01AB1012A06D0022A03D153
:1016E000C96AC90100D5012010BDC96AA142FAD05A
:1016F00010BD002AF7D0012AF2D0022AF3D0032A23
:10170000F3D010BD30B50468256825F48025256028
:10171000046863608368402B036803D099600068A5
:10172000C26030BD9A600068C16030BD7047000083
:1017300001A003F0FFBA000041542B4346554E3D33
:10174000312C310D0A0000002DE9F05FDFF8ECB319
:101750000025FB4C8BF80050AA4620704FF496767B
:10176000F84F4FF00F084FF00809B6E3C0B2102849
:101770007ED2DFE800F008345B84ABD4FDFCFBFADA
:10178000F9F8F7F6F5F44FF4C871EF48FEF76AFD83
:10179000EEA003F0CFFA304604F008FAEDA1EA48D3
:1017A000FEF76BFDE062ECA004F000FFEFA004F098
:1017B000FDFEE549F1A004F0F9FE304604F0F6F92B
:1017C0004FF4FA7000F0FFFF0AF101008BF80050AF
:1017D00000F0FF0AE06A00287ED0012020704FF45C
:1017E000C871D948FEF73EFDE6A003F0A3FA3046E3
:1017F00004F0DCF9D7A1D448FEF73FFDE062E3A096
:1018000004F0D4FE304604F0D1F9D8A004F0CEFEA6
:10181000CD49DAA004F0CAFE4FF4FA7000F0D3FF0D
:101820003D80E06A00287DD0022020704FF4C8710E
:10183000C548FEF717FDDAA003F07CFA304604F045
:10184000B5F9DAA1C048FEF718FDE062D9A004F0AE
:10185000ADFE304604F0AAF9C4A004F0A7FEBA49D0
:10186000C6A004F0A3FE4FF4FA7000F0ACFF00E055
:1018700030E33D80E06A00287BD0032020704FF4E5
:10188000C871B148FEF7EEFCD0A003F053FA304621
:1018900004F08CF9D0A1AC48FEF7EFFCE062D1A0D7
:1018A00004F084FE304604F081F9B0A004F07EFE1E
:1018B000A549B2A004F07AFE4FF4FA7000F083FF5D
:1018C0003D80E06A00287DD0042020704FF4C8716C
:1018D0009D48FEF7C7FC00E0D6E2C8A003F02AFA54
:1018E000304604F063F9C8A19748FEF7C6FCE062F1
:1018F000C7A004F05BFE304604F058F99BA004F04A
:1019000055FE91499DA004F051FE4FF4FA7000F08D
:101910005AFF3D80E06A00287DD0052020704FF4FA
:10192000C87100E0C5E28848FEF79CFCBEA003F049
:1019300001FA304604F03AF9BEA18348FEF79DFC57
:10194000E062BFA004F032FE304604F02FF987A019
:1019500004F02CFE7C4989A004F028FE0AE089E20C
:1019600060E236E20BE2D7E0ADE083E05BE034E03A
:101970000AE0A0E24FF4FA7000F025FF3D80E06A33
:1019800000287DD0062020704FF4C8716E48FEF705
:1019900069FCB1A003F0CEF9304604F007F9B1A11B
:1019A0006948FEF76AFCE062B1A004F0FFFD304632
:1019B00004F0FCF86DA004F0F9FD63496FA004F099
:1019C000F5FD00E07AE24FF4FA7000F0FCFE3D8095
:1019D000E06A00287DD0072020704FF4C8715A4873
:1019E000FEF740FCA8A003F0A5F9304604F0DEF8AD
:1019F00058A15548FEF741FCE062A6A004F0D6FDD0
:101A0000304604F0D3F859A004F0D0FD4E495BA055
:101A100004F0CCFD00E053E24FF4FA7000F0D3FE86
:101A20003D8084F800904FF4C8714748FEF71AFCD7
:101A30009EA003F07FF9304604F0B8F845A1424873
:101A4000FEF71BFCE0629DA004F0B0FD304604F000
:101A5000ADF846A004F0AAFD3B4948A004F0A6FD5D
:101A60003D804FF4FA7000F0AEFEE06A002864D0CA
:101A7000092020704FF4C8713348FEF7F3FB00E0F3
:101A800020E295A003F056F9304604F08FF831A11A
:101A90002D48FEF7F2FBE06293A004F087FD30468C
:101AA00004F084F831A004F081FD274933A004F04C
:101AB0007DFD4FF4FA7000F086FE3D80E06A00285C
:101AC000D5D00A2020704FF4C8711F48FEF7CAFB1A
:101AD00000E0F9E18BA003F02DF9304604F066F840
:101AE0001CA11948FEF7C9FBE0628AA004F05EFD64
:101AF000304604F05BF81DA004F058FD12491FA009
:101B000004F054FD3D804FF4FA7000F05CFEE06A92
:101B10000028ACD00B2020704FF4C8710A48FEF7A3
:101B2000A1FB83A003F006F9304604F03FF809A1B9
:101B30000548FEF7A2FBE06208E19CE114000020EA
:101B4000380000201A000020580200204154490D9E
:101B50000A0000004F4B00003E2D2D454332302D32
:101B60002D3E3E204154490D0A0000003C2D2D45DC
:101B70004332302D2D3C3C200D0A00002025730DF2
:101B80000A000000415445300D0A00003E2D2D454D
:101B90004332302D2D3E3E20415445300D0A000089
:101BA00041542B4350494E3F0D0A000052454144D9
:101BB000590000003E2D2D454332302D2D3E3E2054
:101BC00041542B4350494E3F0D0A000041542B43D2
:101BD0005245473F0D0A00002B435245473A2030FB
:101BE0002C3100003E2D2D454332302D2D3E3E2020
:101BF00041542B435245473F0D0A000041542B43AB
:101C000053510D0A000000002B4353513A000000CD
:101C10003E2D2D454332302D2D3E3E2041542B4349
:101C200053510D0A0000000041542B4347524547D1
:101C30003F0D0A002B43475245473A20302C3100D4
:101C40003E2D2D454332302D2D3E3E2041542B4319
:101C5000475245473F0D0A0041542B4347415454D6
:101C60003F0D0A002B43474154543A2031000000F5
:101C70003E2D2D454332302D2D3E3E2041542B43E9
:101C8000474154543F0D0A0041542B514750533D96
:101C9000310D0A003E2D2D454332302D2D3E3E2084
:101CA00041542B514750533D310D0A0041542B51A3
:101CB0004D54444953433D300D0A00003E2D2D45FF
:101CC0004332302D2D3E3E2041542B514D5444493A
:101CD00053433D300D0A000041542B5149444541C6
:101CE00043543D310D0A00003E2D2D454332302D29
:101CF0002D3E3E2041542B514944454143543D31F2
:101D00000D0A000041542B51494143543D310D0A05
:101D1000000000003E2D2D454332302D2D3E3E204B
:101D200041542B51494143543D310D0A00000000FC
:101D300041542B514D544346473D22716D74706997
:101D40006E67222C302C33300D0A000065A004F0A1
:101D50002DFC304603F02AFFAFF2F01004F026FC11
:101D60006A49AFF2E81004F021FC3D804FF4FA70AC
:101D700000F029FDE06A00287DD00C2020704FF48F
:101D8000C8716248FEF76EFA61A002F0D3FF3046D8
:101D900003F00CFFAFF244215C48FEF76EFAE062FC
:101DA00063A004F003FC304603F000FFAFF24420D0
:101DB00004F0FCFB5549AFF23C2004F0F7FB3D80FA
:101DC0004FF4FA7000F0FFFCE06A00287ED00D208E
:101DD00020704FF4C8714D48FEF744FA5FA002F03E
:101DE000A9FF304603F0E2FE65A004F0DFFB3046B9
:101DF00003F0DCFEAFF28C2004F0D8FB6CA143486A
:101E0000FEF73BFA4149E062AFF2902004F0CEFBCE
:101E10004FF4FA7000F0D7FC3D80E06A002855D0FE
:101E20000E2020704FF4C8713848FEF71BFA64A0EA
:101E300002F080FF304603F0B9FE6BA13348FEF795
:101E40001CFAE0626CA004F0B1FB304603F0AEFE79
:101E5000AFF2E82004F0AAFB2C49AFF2E02004F036
:101E6000A5FB3D804FF4FA7000F0ADFCE06A10B1C4
:101E700084F8008000E029E06CA004F097FB404665
:101E800084F80080BDE8F09F0320BAFBF0F200FB6D
:101E900012A02570012807D16CA004F087FB1AA0BE
:101EA00002F048FFFFF744FC40F6B83003F07EFE36
:101EB00013E0012000E00220207057E40320FBE73C
:101EC0000420F9E70520F7E70620F5E7484684F8FF
:101ED00000904BE464A004F069FB20780F28ECD15B
:101EE000C0B2CFE73E2D2D454332302D2D3E3E2052
:101EF00041542B514D544346473D27716D747069D1
:101F00006E67272C302C33300D0A00005802002059
:101F100041542B514D544346473D22726563762F01
:101F20006D6F6465222C302C302C310D0A000000BE
:101F30003E2D2D454332302D2D3E3E2041542B5118
:101F40004D544346473D22726563762F6D6F64653D
:101F5000222C302C302C310D0A00000041542B5122
:101F60004D544F50454E3D302C223132342E3232BA
:101F7000302E342E3731222C313838330D0A000000
:101F80003E2D2D454332302D2D3E3E2041542B51C8
:101F90004D544F50454E3D302C223132342E32328A
:101FA000302E342E3731222C313838330D0A0000D0
:101FB0002B514D544F50454E3A20302C30000000EC
:101FC00041542B514D54434F4E4E3D302C22706F97
:101FD0007274222C22726F6F74222C2231323334AD
:101FE0003536220D0A0000002B514D54434F4E4E02
:101FF0003A20302C302C30003E2D2D454332302DF0
:102000002D3E3E2041542B514D54434F4E4E3D30BA
:102010002C22706F7274222C22726F6F74222C2209
:10202000313233343536220D0A0000003E2D2D703A
:1020300072696E742D2D3E3E2045433230B3F5CA91
:10204000BCBBAFB3C9B9A60D0A0000003E2D2D7070
:1020500072696E742D2D3E3E20454332302052452C
:102060005345540D0A0000003E2D2D7072696E74A8
:102070002D2D3E3E2045433230B3F5CABCBBAFCA1E
:10208000A7B0DC0D0A00000072B6FEE7402101484F
:1020900000F094BC0004024078B50024009490F84D
:1020A0003C20012A19D0012280F83C200A6807232D
:1020B0000568092A13D9EE680A3A02EB42029340F6
:1020C0009E43EE600B788A680A3B03EB43039A4019
:1020D0000368DD682A43DA6010E0022078BD2E69CB
:1020E00002EB420293409E432E610B788A6803EB19
:1020F00043039A4003681D692A431A614A681F23F3
:10210000072A13D205686E6B521E02EB82029340BF
:102110009E436E630B790A885B1E92B203EB8303C6
:102120009A4003685D6B2A435A6327E005680D2ACD
:1021300012D22E6BD21F02EB820293409E432E637B
:102140000B790A88DB1F92B203EB83039A40036882
:102150001D6B2A431A6311E0EE6A0D3A02EB82020C
:1021600093409E43EE620B790A880D3B92B203EBDB
:1021700083039A400368DD6A2A43DA62164B0568D6
:10218000144A9D4206D10D68122D03D1556845F4BD
:102190008005556005689D4218D10B68102B01D051
:1021A000112B13D1536843F40003536009681029BD
:1021B0000CD10A490A4A0968B1FBF2F101EB81012D
:1021C000490000E0491E00910029FBD180F83C4005
:1021D000002078BD00230140002001402C00002099
:1021E00040420F0070477047704770B504004FF0D1
:1021F000000503D0206C002610B107E0012070BD5F
:10220000204600F01DF8666484F83C60206CC0062F
:1022100010D4206C20F4885040F002002064204646
:10222000FFF740F86664206C20F0020040F00100E7
:10223000206400E0012584F83C60284670BD000061
:1022400070B586B0064614216846FEF70BF81D49A6
:102250003068884234D11C480025016841F48071FF
:102260000160006800F48070059017481438016818
:1022700041F0010101600068694600F0010005902D
:10228000F32000900320CDE90105104800F09EFAEC
:10229000104C0F48C4E900050015A560C4E90350BF
:1022A000400060618000A0614011C4E9070520463C
:1022B000656200F0E7F908B1FFF7E6FEB463A663D4
:1022C00006B070BD002001404438024000000240CA
:1022D00010640240E8000020F8B5044600200E46D5
:1022E000009094F83C10012907D0012184F83C109B
:1022F00021688B68DB0702D011E00220F8BD8B68F3
:1023000043F001038B604049404B0968B1FBF3F196
:1023100001EB410100E0491E00910029FBD1216839
:102320008B68DB0503D58B6823F480738B60216891
:102330008B68DB075DD0236C40F20165AB4343F44F
:10234000807323644968490505D5216C21F4005147
:1023500041F480512164216CC90404D5616C21F0E1
:102360000601616400E0606484F83C00A16B2948C8
:10237000274DC863A16B28480864A16B2748C8642F
:1023800021686FF0220008602068416841F0806198
:1023900041602068816841F4807181602168134642
:1023A00032464C31A06B00F0D7F968681C49C00672
:1023B000206806D0884224D1816811F0405F13D094
:1023C0001FE08842F8D0174A904203D1D1F8042385
:1023D000D206F1D0144A904213D1D1F8041301F07F
:1023E0001F011029E8D30CE0816841F08041816031
:1023F00007E0206C40F010002064606C40F00100A9
:1024000060640020F8BD00002C00002040420F0056
:1024100000230140151200089912000883120008D9
:102420000020014000210140002201402DE9F0413F
:102430000446876D00F0CCFA064694F83500002576
:10244000022806D08020606584F834500120BDE861
:10245000F0812068016821F016010160206841695F
:1024600021F080014161206C08B9A06C20B1206886
:10247000016821F0080101602068016821F0010174
:1024800001600CE000F0A4FA801B052807D9202089
:102490006065032084F8350084F83450D7E720685D
:1024A0000068C007EED194F85C103F208840B86007
:1024B000012084F8350084F834500020C7E790F8F4
:1024C0003510022903D08021416501207047052184
:1024D00080F835100068016821F0010101600020DA
:1024E000704700002DE9F84304464FF00009CDF88D
:1024F000009063484FF41651A56D0068B0FBF1F7EA
:102500002E6894F85C10082000FA01F131420FD0D7
:1025100021680A6852070BD50A6822F004020A6093
:1025200094F85C108840A860606D40F00100606520
:1025300094F85C104FF0010808FA01F0304208D01E
:1025400021684969090604D5A860606D40F0020061
:10255000606594F85C1004208840304208D02168FF
:102560000968890704D5A860606D40F004006065C3
:1025700094F85C1010208840304218D02168096817
:10258000090714D5A86020680168490304D50068CC
:10259000000308D5A16C07E00168C90503D40168F0
:1025A00021F008010160216C09B12046884794F8A8
:1025B0005C1020208840304231D021680968C9066B
:1025C0002DD5A86094F8350005282068016806D04C
:1025D000490347D5006800031DD4616C1CE021F05D
:1025E000160101602068416921F080014161206C81
:1025F00008B9A06C20B12068016821F008010160D1
:1026000094F85C103F208840A86084F8358084F8F6
:102610003490216D1FE0E16B09B120468847606D61
:1026200000282BD0606DC00714D0052084F8350039
:102630002068016821F0010101600098401C0090B1
:10264000B84203D820680068C007F6D184F8358006
:1026500084F83490E16C002910D001B02046BDE828
:10266000F04308470168C905D5D4016821F010017D
:10267000016084F8358084F83490CCE7BDE8F883B5
:102680002C0000202DE9F041044600F0A1F9064697
:102690005CB1022084F83500002584F834502068AD
:1026A000016821F0010101600DE00120BDE8F08129
:1026B00000F08EF9801B052805D9202060650320D5
:1026C00084F83500F2E720680068C007F0D122687E
:1026D000116820480140D4E901031843D4E90336C6
:1026E0003343184363691843A3691843E3691843E4
:1026F000236A18430843616A042903D1D4E90B1300
:1027000019430843106020684069666A20F0070199
:1027100030460E43012704280CD1A06A0643E06A24
:1027200040B12046FEF7C4FF20B14020606584F828
:102730003570BAE7206846612046FEF7A5FF94F899
:102740005C203F2191408160656584F835700020F0
:10275000ACE700003F8010F02DE9F0410446866DA3
:1027600090F83400002501280DD0012084F83400B1
:1027700094F835700020012F07D084F8340002252A
:102780002846BDE8F0810220FBE7022784F8357077
:1027900060652046FEF7B6FF94F85C103F20884045
:1027A000B0602068016841F016010160206C20B122
:1027B0002068016841F0080101602068016841F06B
:1027C00001010160DCE780B203F0F0B92DE9F84FB8
:1027D000DFF8BCA10022012503264FF00F090AF102
:1027E000040BAAF1040E00BF0B6805FA02F42340A3
:1027F000A34270D10F7907F00307012F01D0022FF8
:1028000016D187684FEA420806FA08FC27EA0C0747
:10281000D1F80CC00CFA08FC4CEA070CC0F808C050
:102820004768A7430C79C4F3001494403C434460C8
:102830000C79E443A4070AD0C4684FEA420C06FAB4
:102840000CF7BC438F6807FA0CF72743C7600C7975
:1028500004F00304022C12D1D40800EB840CDCF841
:1028600020405707FF0E09FA07F824EA0804D1F8B8
:10287000108008FA07F848EA0408CCF820800468B9
:102880004FEA420C06FA0CF7BC430F7907F0030736
:1028900007FA0CF7274307604C6814F4403F70D0E8
:1028A0003C4C276847F480472760246822F00307E0
:1028B00004F480440094384C07EB040CDCF808481E
:1028C00097074FEA177809FA08F7BC43334FB84225
:1028D00002D1002724E054E0314FB84201D1012752
:1028E0001EE0304FB84201D1022719E02E4FB84206
:1028F00001D1032714E02D4FB84201D104270FE086
:102900002B4FB84201D105270AE02A4FB84201D126
:10291000062705E0284FB84201D1072700E0082725
:1029200007FA08F72743CCF80878DAF8004057464A
:10293000D1F804C09C435FEACC2C00D51C433C601A
:10294000DBF800405F46D1F804C09C435FEA8C2C62
:1029500000D51C433C60DEF800407746D1F804C047
:102960009C435FEA8C3C00D51C433C60084F083F09
:102970003C68D1F804C09C435FEACC3C00D51C43C2
:102980003C60521C102AFFF42FAFBDE8F88F000006
:10299000083C014044380240003001400000024041
:1029A0000004024000080240000C024000100240F7
:1029B0000014024000180240001C02400069084058
:1029C00000D0012070470AB1816170470904FBE71C
:1029D000014880687047000020000020024881689C
:1029E0000278114481607047200000200B4810B528
:1029F000016841F400710160016841F48061016087
:102A0000016841F480710160032000F071F800203A
:102A100000F006F800F024F8002010BD003C024051
:102A200070B50D4D04464FF47A712878B1FBF0F083
:102A30000A490968B1FBF0F000F018FB48B9102C06
:102A400007D200222146501E00F032F800206C60B0
:102A500070BD012070BD0000200000202C0000206F
:102A60000B4882B0016841F480410160006800F4C5
:102A7000804000900648001F016841F080510160CD
:102A8000006800F080500090052002B000F030B8DF
:102A900044380240002809DB00F01F020121914068
:102AA0004009800000F1E020C0F8001170470000EC
:102AB000F0B40E4B1B680C46C3F30223C3F10705A9
:102AC000042D00D90425191D072901D2002300E097
:102AD000DB1E012606FA05F1491E214099409E4061
:102AE000761E16403143F0BC02F062B90CED00E0F6
:102AF000064900F0070208684FF6FF03184040EA55
:102B00000220034A10430860704700000CED00E00B
:102B10000000FA052DE9F0470E46050065D0DFF804
:102B20001481D8F80000F7B200F00700B04207D2D5
:102B300088F80070D8F8000000F00700B04254D1C7
:102B400028683D4C810712D5400703D5206840F422
:102B5000E05020602878000703D5206840F46040EA
:102B600020602068A96820F0F000084320602878E1
:102B7000C0072DD0304968680839012812D00228D2
:102B800013D0032811D00968890700292DDA21689C
:102B900021F0030101432160FFF71AFF814641F252
:102BA000883A0EE009688903EFE709688901ECE7D4
:102BB000FFF70EFFA0EB0901514502D90320BDE844
:102BC000F0872068696800F00C00B0EB810FEFD14E
:102BD000D8F80010404601F00701B14207D907704C
:102BE000006800F00700B04201D00120E7E7287834
:102BF000400705D52068E96820F4E05008432060CC
:102C00002878000706D52068296920F4604040EA4A
:102C1000C100206000F038F82168084AC1F30311B0
:102C2000515CC8400649086006480068FFF7F8FE96
:102C30000020C4E7003C0240083802403867000822
:102C40002C00002024000020044805490068096881
:102C5000044AC1F38221515CC84070472C00002017
:102C600008380240486700080448054900680968B8
:102C7000044AC1F34231515CC84070472C00002027
:102C80000838024048670008154810B5006810F081
:102C90000C02144813D04110042A0FD0082A0ED178
:102CA0000F4C241F2268236802F03F025B0207D505
:102CB0002068C0F38810A0FB010106E0084610BDA3
:102CC0002168C1F38811A1FB00010023FDF77AFA06
:102CD0002168C1F30141491C4900B0FBF1F010BD6E
:102CE000083802400024F4002DE9F84F04006ED0AB
:102CF0002078DFF84C93C007A9F104054AD009F108
:102D000004000168C1F38101012908D00068C0F303
:102D1000810002280AD1D9F80000400206D52868AF
:102D2000800337D560680028E1D033E06068B0F5F3
:102D3000803F10D0B0F5A02F286810D020F480304C
:102D40002860286820F4802028606068A8B1FFF718
:102D50003FFE06460DE0286840F48030F4E740F47A
:102D600080202860F7E700BFFFF732FE801B642851
:102D700073D828688003F7D50CE0FFF729FE0646D4
:102D800005E000BFFFF724FE801B6428F0D8286808
:102D90008003F7D42078DFF8AC8280074FF0000A78
:102DA0003ED5A748001D016811F00C0F08D000683F
:102DB000C0F3810002280BD1D9F80000400207D4EB
:102DC0002868800716D5E068012800D112E033E1B9
:102DD000E068B8B10120C8F80000FFF7F9FD064629
:102DE00005E000BFFFF7F4FD801B0228C0D828686B
:102DF0008007F7D52868216920F0F80040EAC10073
:102E000028600DE0C8F800A0FFF7E2FD064604E0E8
:102E1000FFF7DEFD801B02281FD828688007F7D443
:102E20002078000722D5864F87486169703771B1D5
:102E300001210160FFF7CCFD064604E0FFF7C8FD65
:102E4000801B022809D838688007F7D50EE0C0F843
:102E500000A0FFF7BDFD064605E082E0FFF7B8FDE4
:102E6000801B02287DD838688007F7D42078400777
:102E700068D5DFF8CCB100270BF13C0BDBF8000084
:102E8000C0000BD4DBF8001041F08051CBF80010EB
:102E9000DBF80000012700F0805000906B4E306896
:102EA000C00510D4306840F480703060FFF790FDAA
:102EB000009005E0FFF78CFD0099401A022850D8D9
:102EC0003068C005F6D55E4EA0686C3601280FD07C
:102ED0000528306810D020F001003060306820F004
:102EE00004003060A068B8B1FFF772FD00900FE0F9
:102EF000306840F00100F4E740F004003060F7E78C
:102F0000FFF766FD0099411A41F28830814266D888
:102F100030688007F4D50EE0FFF75AFD009007E017
:102F2000FFF756FD0099411A41F28830814256D888
:102F300030688007F4D42FB1DBF8001021F0805105
:102F4000CBF80010A069C8B33D49091D0968C1F359
:102F5000810102294AD00228504607D0C8F86000F3
:102F600000E03CE0FFF734FD04463BE04746C8F88C
:102F70006000FFF72DFD064605E000BFFFF728FDC6
:102F8000801B02282BD828688001F7D4D4E90701D8
:102F90000843A16A2E4A490802EB0141626A41EAEC
:102FA0008211084394F82C1040EA0161C9F800101E
:102FB00001203866FFF70CFD044606E03EE000BF46
:102FC000FFF706FD001B022809D828688001F7D505
:102FD00034E000BFFFF7FCFC001B022802D90320ED
:102FE000BDE8F88F28688001F4D427E00128F7D0E5
:102FF000D9F80000E26900F4800191421CD1226AF4
:1030000000F03F01914217D147F6C071626A01405A
:10301000B1EB821F10D1A26A4FF0FF3300F44031B0
:1030200003EB5202B1EB024F06D194F82C1000F0E2
:103030007060B0EB016F01D00120D1E70020CFE735
:103040000438024000004742800E474200700040B2
:103050000000FFFF4FF0E0210428086903D020F0B2
:1030600004000861704740F00400FAE710B5401E04
:10307000B0F1807F01D3012010BD4FF0E0246061EA
:103080000F21601701F094FE0020A061072020614D
:10309000002010BD70B590F83C20012A32D00124E8
:1030A00080F83C40022280F83D2003685A689D6801
:1030B00022F070060A6832435A60134B02689A4243
:1030C00014D0B2F1804F11D0104B9A420ED0104B59
:1030D0009A420BD00F4B9A4208D00F4B9A4205D020
:1030E0000E4B9A4202D00E4B9A4204D1496825F009
:1030F00080031943916080F83D40002180F83C1026
:10310000084670BD022070BD000001400004004070
:1031100000080040000C0040000401400040014055
:103120000018004010B5040003D094F83D0010B121
:1031300007E0012010BD002084F83C00204600F08C
:103140001FF8022084F83D00211D206801F012FBC9
:10315000012084F8460084F83E0084F83F0084F89B
:10316000400084F8410084F8420084F8430084F869
:10317000440084F8450084F83D00002010BD0000A4
:1031800008B500680649884208D10648016841F040
:1031900010010160006800F01000009008BD000000
:1031A000001000404038024090F83D10012901D045
:1031B00001207047022180F83D100168CA6842F082
:1031C0000102CA6000681149884214D0B0F1804FF2
:1031D00011D00F4988420ED00E4988420BD00E49BB
:1031E000884208D00D49884205D00D49884202D056
:1031F0000C49884204D1816801F00701062903D0F7
:10320000016841F0010101600020704700000140A9
:103210000004004000080040000C00400004014091
:1032200000400140001800400168CA6822F0010215
:10323000CA6001680A6A41F211131A4207D10A6A88
:103240009B101A4203D10A6822F001020A60012190
:1032500080F83D1000207047704710B504460068A4
:10326000406994F83D10C0F3C010212911D180B1FC
:103270002068143050E8001F21F0800140E800125F
:10328000002AF5D1606B08B1FFF7D0F8204601F0B5
:1032900077FB2068406994F83E10C0F38010222923
:1032A00011D180B12068143050E8001F21F0400196
:1032B00040E80012002AF5D1A06B08B1FFF7B6F87C
:1032C000204601F036FB002010BD7047F8B50168BC
:1032D00004460868CA684B6910F00F0F4FF00005EC
:1032E00059D003F0010602F49077374365D0C10747
:1032F00005D0D10503D5216C41F0010121644107BE
:1033000005D5D90703D0216C41F002012164810762
:1033100005D5D90703D0216C41F0040121640107D0
:1033200007D502F02001314303D0216C41F00801A0
:103330002164216C00293AD0800604D5900602D57C
:10334000204601F02BFB20684069216CC0F38010FF
:10335000090700D460B3204601F0EBFA2068406909
:10336000400621D52068143050E8001F21F04001AC
:1033700040E80012002AF5D1A06BA8B16C490165A4
:10338000A06BFFF79CF8002811D0A06B016D01B075
:10339000BDE8F040084783060FD593060DD52046BB
:1033A000BDE8F84001F0FABA2046FFF78EFFF8BDFD
:1033B0002046FFF78AFF2564F8BD266B2023012EE7
:1033C00079D1C60677D5D60675D5086848680090C5
:1033D0004869400640D5A16B086840680004000CAD
:1033E000EAD0A28D8242E7D9E085C869B0F5807F36
:1033F0002DD020680C3050E8001F21F4807140E887
:103400000012002AF5D12068143050E8001F21F086
:10341000010140E80012002AF5D12068143050E87C
:10342000001F21F0400140E80012002AF5D184F885
:103430003E30256320680C3050E8001F21F0100159
:1034400040E80012002AF5D1A06BFEF7EFFFA08D37
:10345000E18D401A81B229E0A08DE18D401A81B240
:10346000E08D0028A8D00029A6D020680C3050E8B4
:10347000002F22F4907240E80026002EF5D120683B
:10348000143050E8002F22F0010240E80026002E00
:10349000F5D184F83E30256320680C3050E8002FC9
:1034A00022F0100240E80023002BF5D12046FFF760
:1034B000D3FEF8BDFFE705062BD5150629D594F8F0
:1034C0003D002128F5D1A068B0F5805F01D12069C9
:1034D000B0B1206A411C2162216800784860E08C0C
:1034E000401E0004000CE084E3D12068C16821F094
:1034F0008001C1602068C16841F04001C160D8E727
:10350000206A0088C0F308004860206A801C20629E
:10351000E5E74006CDD55006CBD5CA68204622F057
:103520004002CA6084F83D3000F07BFAC1E7000039
:103530003D48000870B5040004D094F83D00002513
:1035400010B106E0012070BD84F83C50204600F028
:1035500023F8242084F83D002068C16821F400513C
:10356000C160204601F07AFA2068016921F4904197
:1035700001612068416921F02A0141612068C16828
:1035800041F40051C1602564202084F83D0084F896
:103590003E00002070BD00002DE9F04F87B00646C8
:1035A00014216846FCF75EFE5348524B32680024F3
:1035B0005149103802254FF0030C4FF008094FF025
:1035C000006A4FF4806B9A422FD10A6842F40022BD
:1035D0000A60096801F400210591016841F00401C5
:1035E00001600068CDE9024C00F0040005904FF442
:1035F0004060CDE900056946CDF810903F48FFF7DF
:10360000E5F8404D3E482860C5E901A4C5E9034BF3
:1036100080156C61C5E906402C6228466C6262E048
:10362000B563AE6307B0BDE8F08FDFF8DC80072735
:10363000364B42451DD13049091D0A6842F010023F
:103640000A60096801F010010591016841F001016B
:1036500001600068CDE9024C00F0010005904FF4D4
:10366000C060CDE90005694604971846FFF7AEF83B
:10367000D8E7DFF89CC06245D4D10A6842F4003232
:103680000A60096801F400310591016841F0010107
:103690000160006802AA00F0010005900420CDE955
:1036A000000582E8B000694698461846FFF78EF894
:1036B0000120CDF80090CDE90150CDE903576946CE
:1036C0004046FFF783F80F4D0D48603548302860BD
:1036D000C5E901A4C5E9034B80156C61C5E9064045
:1036E0002C6228466C62FEF7CDFF002898D0FEF7CA
:1036F000CBFC95E7004C00404038024000080240F7
:1037000040600240D8040020001001400000024048
:103710000044004090F83E30202B0ED159B152B1F8
:1037200090F83C30012B08D0012380F83C30002376
:10373000036301F019BA012070470220704790F826
:103740003E30202B0ED159B152B190F83C30012BB4
:1037500008D0012380F83C300023036301F04EBA07
:10376000012070470220704770B504462DED068B8E
:1037700000686F4988421AD16E496F4A88888B78F1
:103780001354401C80B28880104410F8011C0A2990
:1037900007D110F8020C0D2803D1C8211046FCF700
:1037A00061FD64490122891C6448FFF7C8FF644930
:1037B000206888427DD1614C683C2078552879D1B9
:1037C00060785128FBD16088FDF793F99FED5D8B00
:1037D00053EC182BFDF79BF89FED5C9B53EC192BDA
:1037E000FDF795F89FED5BAB53EC1A2BFDF78FF8C7
:1037F000FDF7EEF904F5D875A861A088FDF779F911
:1038000053EC182BFDF783F853EC192BFDF77FF8D9
:1038100053EC1A2BFDF77BF8FDF7DAF9E861E08845
:10382000FDF767F953EC182BFDF771F853EC192BE2
:10383000FDF76DF853EC1A2BFDF769F8FDF7C8F9A1
:103840002862207B52282DD134F80D0FFDF751F955
:1038500053EC182BFDF75BF89FED409B53EC192BB5
:10386000FDF755F8FDF7B4F9E8606088FDF741F918
:1038700053EC182BFDF74BF853EC192BFDF747F8D9
:10388000FDF7A6F92861A0880D3CFDF732F953EC4D
:10389000182BFDF73CF853EC192BFDF738F8FDF722
:1038A00097F96861E07D53282ED1208BFDF721F92F
:1038B00001E039E028E053EC182BFDF728F89FEDE4
:1038C000299B53EC192BFDF722F8FDF781F92860AD
:1038D000608BFDF70EF953EC182BFDF718F853EC3D
:1038E000192BFDF714F8FDF773F96860A08BFDF74D
:1038F00000F953EC182BFDF70AF853EC192BFDF7E0
:1039000006F8FDF765F9A8600C4821216838FCF736
:10391000A9FCBDEC068B42220849BDE8704068391D
:1039200001F12400FFF7F6BEBDEC068B70BD000070
:1039300000100140140000209001002050040020DD
:10394000004C0040000000000000003F00000000AC
:10395000000030409A9999999999234000000000FD
:1039600000409F400000000000806640704700005B
:103970002DE9F843044690F83D001F4616460D46D3
:1039800020284CD1C5B1BEB194F83C00012846D0E6
:10399000012084F83C004FF00008C4F8408021204A
:1039A00084F83D00FFF714F8A6848146E684A068F9
:1039B000B0F5805F03D004E00120BDE8F883206902
:1039C00028B12E465FF0000584F83C800EE000260A
:1039D000FAE78021204601F02EF9A0B9AEB116F821
:1039E000010B21684860E08C401EE084E08C4B466F
:1039F0004FF0000200970028EBD14FF04001204625
:103A000001F019F930B10320D7E735F8020BC0F304
:103A10000800E6E7202084F83D000020CDE70220E2
:103A2000CBE7704710B500F015F80449086001466F
:103A3000BDE8104002A002F0B9BD00005C0000200B
:103A400044697374616E6365203D2025644D4D0D9E
:103A50000A00000010B500F023FE00BFFEF716FBC1
:103A60000028FBD002F034FEFEF710FB0028FBD14B
:103A700002F014FA0149086010BD00001000002097
:103A8000FEE70000244810B50178491CC9B2017056
:103A900097291DD90021017020A002F087FD1E4842
:103AA000801D02F0FFFD23A002F080FD4FF496740C
:103AB000204602F07BF824A002F078FD1648C01CD6
:103AC00002F0F0FD25A002F071FD204602F06EF834
:103AD00027A002F06BFD284C6068FDF736F841EC3A
:103AE000100B26A053EC102B02F060FD2068FDF7B0
:103AF0002CF841EC100B25A053EC102B02F056FDD6
:103B0000A068FDF722F841EC100BBDE8104053EC23
:103B1000102B22A002F04ABD00000020D5FDD4DA0F
:103B2000BDF8D0D0BCD3CBD9B6C8D0A3D7BC0D0A72
:103B300000000000BCD3CBD9B6C8D0A3D7BCCDEA17
:103B4000B3C90D0A00000000BDF8D0D05AD6E1BDBF
:103B5000C7B6C8C7E5C1E30D0A0000005AD6E1BDEB
:103B6000C7B6C8C7E5C1E3CDEAB3C90D0A00000076
:103B70002D4A593631503A00980500205069746337
:103B800068203D20252E336620090000526F6C6CA2
:103B9000203D20252E336620090000005961772042
:103BA0003D20252E336620090D0A00007FB5002434
:103BB0002E480094019402942B490394016001253E
:103BC0004FF480310561C0E90114057680F820408A
:103BD0002749C0E90A140626C661C46080F830503F
:103BE0004461FEF702FB08B1FEF74EFACDE900454D
:103BF00069461E480294FEF74FFA08B1FEF744FAF0
:103C00000220CDE9005069461848FEF745FA08B190
:103C1000FEF73AFA07200090032001906946134806
:103C2000FEF73AFA08B1FEF72FFA0424CDE9006452
:103C300069460E48FEF730FA08B1FEF725FA0094FF
:103C40000524694609480194FEF726FA08B1FEF7F3
:103C50001BFACDE9004669460448FEF71DFA002824
:103C600001D0FEF711FA7FBD00200140A000002026
:103C70000100000F154808B5016841F4800101609A
:103C8000016801F480010091016841F400110160B4
:103C90000068002200F40010009011460D20FEF78D
:103CA00007FF0D20FEF7F6FE002211461020FEF75A
:103CB000FFFE1020FEF7EEFE002203213820FEF763
:103CC000F7FEBDE808403820FEF7E4BE3038024079
:103CD000F0B587B014216846FCF7C4FA2A480024DE
:103CE000016841F080010160016801F080010591E7
:103CF000016841F001010160016801F001010591D5
:103D0000016841F004010160016801F004010591BE
:103D1000016841F040010160016801F04001059136
:103D2000016841F0020101600068184E00F00200D5
:103D30004FF400750590002229463046FEF743FEF9
:103D4000134F002280213846FEF73DFE00950125E5
:103D5000CDE90154694630460394FEF737FD402013
:103D6000CDE90004694638460294FEF72FFD802015
:103D7000CDE9000502200290039069463846FEF71F
:103D800025FD07B0F0BD00003038024000180240A9
:103D9000000402401CB500240F4800940D49019412
:103DA00001605321C0E901144FF6FF71C160802109
:103DB0008161FFF7B7F908B1FEF766F9009469462B
:103DC00005480194FFF766F9002801D0FEF75CF979
:103DD0001CBD000000100040480100200C4810B538
:103DE0000A4901604FF4E1314160002181600C22F9
:103DF000C160C0E904128161C161FFF79BFB00282B
:103E000003D0BDE81040FEF73FB910BD004C0040A4
:103E10000C0400200C4810B50A4901604FF4E13150
:103E20004160002181600C22C160C0E904128161FF
:103E3000C161FFF77FFB002803D0BDE81040FEF70B
:103E400023B910BD00100140500400200C4810B5EB
:103E50000A4901604FF4E1314160002181600C2288
:103E6000C160C0E904128161C161FFF763FB0028F2
:103E700003D0BDE81040FEF707B910BD0044004074
:103E800094040020FEE700002DE9F047E94C0120F2
:103E9000207001F07FFD8146E7A001F087FD02461A
:103EA000E7A1484601F030FDE84D2878FCF721FEF7
:103EB00041EC100B01F032FD0246E5A1484601F04D
:103EC00023FD94ED0E0B01F029FD0246E3A14846C7
:103ED00001F01AFD94ED0C0B01F020FD0246E0A16B
:103EE000484601F011FDA069FCF72FFE41EC100BD4
:103EF00001F014FD0246DBA1484601F005FDE06932
:103F0000FCF723FE41EC100B01F008FD0246D7A19F
:103F1000484601F0F9FC206AFCF717FE41EC100B53
:103F200001F0FCFC0246D3A1484601F0EDFC6068BC
:103F3000FCF70BFE41EC100B01F0F0FC0246CEA1A9
:103F4000484601F0E1FCCF4E3078FCF7D2FD41EC61
:103F5000100B01F0E3FC0246CBA1484601F0D4FC73
:103F6000A068FCF7F2FD41EC100B01F0D7FC024613
:103F7000C8A1484601F0C8FC606AFCF7A9FD41EC05
:103F8000100B01F0CBFC0246C6A1484601F0BCFC78
:103F90006069FCF79DFD41EC100B01F0BFFC02468F
:103FA000C3A1484601F0B0FCE068FCF7CEFD41EC4F
:103FB000100B01F0B3FC0246C2A1484601F0A4FC7C
:103FC0002069FCF7C2FD41EC100B01F0A7FC024692
:103FD000BFA1484601F098FCA06AFCF779FD41ECCE
:103FE000100B01F09BFC0246BAA1484601F08CFC84
:103FF00097A1484601F016FD070007D02878FCF786
:1040000078FD41EC100B384601F020FD93A14846A5
:1040100001F008FD18B194ED0E0B01F017FD90A111
:10402000484601F0FFFC18B194ED0C0B01F00EFDB9
:104030008CA1484601F0F6FC050007D0A069FCF70A
:1040400084FD41EC100B284601F000FD87A1484695
:1040500001F0E8FC050007D0E069FCF776FD41ECD3
:10406000100B284601F0F2FC82A1484601F0DAFC70
:10407000050007D0206AFCF768FD41EC100B2846CC
:1040800001F0E4FC7CA1484601F0CCFC050007D01F
:104090006068FCF75AFD41EC100B284601F0D6FC95
:1040A00079A1484601F0BEFC050007D03078FCF746
:1040B00020FD41EC100B284601F0C8FC75A14846D4
:1040C00001F0B0FC050007D0A068FCF73EFD41EC14
:1040D000100B284601F0BAFC72A1484601F0A2FC80
:1040E000050007D0606AFCF7F3FC41EC100B284692
:1040F00001F0ACFC6EA1484601F094FC050007D02D
:104100006069FCF7E5FC41EC100B284601F09EFCD1
:104110006FA1484601F086FC050007D02069FCF736
:1041200014FD41EC100B284601F090FC65A14846B7
:1041300001F078FC050007D0E068FCF706FD41ECD3
:10414000100B284601F082FC62A1484601F06AFC8F
:10415000050007D0A06AFCF7BBFC41EC100B284619
:1041600001F074FC484601F06BFC0646002540F661
:10417000B83813E0207818B1012814D0022853D0A1
:1041800057A002F013FA5CA002F010FAFDF7D0FA83
:10419000404601F00BFD0020FDF7D6FA20780228FA
:1041A000E8D1BDE8F0874FF4C8715A48FCF75AF8D7
:1041B0003046FCF774F8014657A000F0BBFD4FF401
:1041C0009677384601F0F2FC31465BA000F0B2FD74
:1041D000384601F0EBFC5AA14E48FCF74EF8E0627D
:1041E0003046FCF75CF801465AA002F0DFF9642083
:1041F00001F0DCFC314662A002F0D8F9384601F04B
:10420000D5FC484601F0EAFB304600F0E1FD61A034
:1042100002F0CCF93F4963A002F0C8F96348058079
:10422000E06A28B10220207061A002F0BFF9B5E772
:1042300025709FE738000020313030310000000049
:104240004465766963654944000000000100002070
:1042500074656D7065726174757265006C6F6E0067
:104260006C6174007069746368000000726F6C6C3C
:10427000000000007961770057696E6453706565CE
:10428000640000000200002068756D69646974793B
:104290000000000057696E64446972656374696F59
:1042A0006E00000064697374616E63650000000055
:1042B0005261696E66616C6C496E74656E73697487
:1042C0007900000074757262696469747900000095
:1042D0005048000057617465724C6576656C00004B
:1042E0003E2D2D7072696E742D2D3E3E20B7A2B208
:1042F000BCCAA7B0DC0D0A003E2D2D7072696E7429
:104300002D2D3E3E204D515454C1ACBDD3D6D8BD09
:10431000A80D0A005802002041542B514D5450550D
:104320004245583D302C302C302C302C22706F728E
:1043300074222C25640D0A0025730D0A000000006C
:104340002B514D5450554245583A20302C302C308A
:10435000000000003E2D2D454332302D2D3E3E20E5
:1043600041542B514D545055423D302C302C302C63
:10437000302C22706F7274222C25640D0A0000000C
:104380003E2D2D4A534F4E2D2D3E3E2025730D0AB6
:10439000000000003C2D2D454332302D2D3C3C20AB
:1043A0000D0A00002025730D0A0000001A000020ED
:1043B0003E2D2D7072696E742D2D3E3E20B7A2B237
:1043C000BCB3C9B9A60D0A00FEE700002DE9F04113
:1043D00000264FF4C8713148FBF744FF30492F489D
:1043E00000F0B8FC2F4F0FE076B1641C2EA12046E0
:1043F000FBF743FF050017D0072E14D2DFE806F0C5
:10440000130A0E3A3F44490027A12448FBF735FF21
:10441000044609E02A1B2146B81C02E02A1B21465B
:104420002048FBF706FF2C46761CF6B2062EDBD999
:1044300000F064F800F08EF81A491CA0383102F040
:10444000B5F897ED0A0B1CA053EC102B02F0AEF858
:1044500097ED0C0B1BA053EC102B02F0A7F81C4897
:1044600097ED0A0B80ED0C0B97ED0C0B80ED0E0B0E
:10447000BDE8F0810B482A1B21460D30D1E70948E1
:104480002A1B21461830CCE706482A1B21461A3041
:10449000C7E704482A1B21462630C2E758020020FD
:1044A00090670008C00500202C00000054696D656D
:1044B0003A25730D0A0000006C61743A25660D0AF6
:1044C000000000006C6F6E3A25660D0A00000000C7
:1044D0003800002010EE100A0649884202DDB2EED4
:1044E0000C0A7047B5EEC00AF1EE10FAF9D29FED52
:1044F000020A7047000060410000000000B587B06C
:1045000005A904A8CDE9000103AB02AA08A10C4843
:10451000FBF7E4FEDDE90401CDE900010848DDE92F
:10452000022308A1363000F015FC07B000BD0000E2
:104530002532642532642532642E25326400000061
:10454000C20500202532643A2532643A2532642EB1
:104550002532640010B52DED0A8B8AB008A806AB91
:1045600001AA3FA100904148FBF7B8FE07A80090C0
:104570003E4803AB02AA3EA10D30FBF7AFFE089800
:10458000FCF7A6FA9FED3DAB53EC1A2BFCF731FA82
:1045900041EC180B0698FCF79BFA9FED3ABB53ECE5
:1045A0001B2BFCF726FA41EC190B0198FCF790FA4B
:1045B00053EC192BFCF704F953EC182BFCF700F91A
:1045C0002A4C9FED328B0D3C53EC182BFCF79FF9D6
:1045D0009FED30CB53EC1C2BFCF7F2F841EC100BA9
:1045E00000F02EFC53EC182B51EC100BFCF701FAE9
:1045F000C4E90A010798FCF76BFA53EC1A2BFCF795
:10460000F8F941EC1A0B0398FCF762FA53EC1B2BF8
:10461000FCF7EFF941EC190B0298FCF759FA53EC4F
:10462000192BFCF7CDF853EC1A2BFCF7C9F853EC17
:10463000182BFCF76CF953EC1C2BFCF7C1F841EC80
:10464000100B00F0FDFB53EC182B51EC100BFCF79A
:10465000D0F9C4E90C010AB0BDEC0A8B10BD000012
:104660002532642532642E2534640000CD050020F7
:104670002533642532642E253464000000000000D8
:10468000804F22410000000000004E40000000006A
:10469000D0126341000000000000E03F7047704707
:1046A00010B5084C012280212046FEF78CF90F201E
:1046B00001F0A1FB20460022BDE810408021FEF75A
:1046C00082B9000000040240FEF788B930B593B00B
:1046D00030216846FBF7C6FD14210CA8FBF7C2FD8C
:1046E0001E480025016841F080510160006800F01B
:1046F000805011901A48016841F4804101600068BF
:10470000022400F4804011900120009000040190E8
:104710008001CDE90640082008904FF4A870CDE94B
:10472000090404200B906846FEF7DEFA08B172B661
:10473000FEE70CA90F2081E831004FF4A0500F9044
:104740004FF48050109005210CA8FEF7E3F90028E3
:1047500001D072B6FEE713B030BD00004038024011
:10476000007000400248016841F470010160704728
:1047700088ED00E0F0B50268254C264D264E274F07
:10478000274B4FF0804CA04209D0604507D0A8428B
:1047900005D0B04203D0B84201D0984204D122F0F3
:1047A000700E4A6842EA0E02A0421BD0604519D042
:1047B000A84217D0B04215D0B84213D0984211D0B9
:1047C000184DA8420ED0184DA8420BD0174DA84244
:1047D00008D0174DA84205D0164DA84202D0164D5C
:1047E000A84203D122F44075CA682A434D6922F0D9
:1047F00080022A4302608A68C2620A688262A0421A
:1048000001D0984201D10969016301214161F0BDE4
:10481000000001400004004000080040000C00407F
:1048200000040140004001400044014000480140B4
:1048300000180040001C00400020004010B5806BB4
:104840000021C185C184FEF740FD10BD70B5846BA9
:104850002068406994F83D10C0F3C010002521295C
:1048600004D118B1E584204600F08AF82068406938
:1048700094F83E10C0F38010222904D118B1E585C8
:10488000204600F056F8206C40F0100020642046CE
:10489000FEF71BFD70BD10B50146806B0968096805
:1048A000C9052FD40021C18501680C3151E8002FC2
:1048B00022F4807241E80023002BF5D10168143105
:1048C00051E8002F22F0010241E80023002BF5D12E
:1048D0000168143151E8002F22F0400241E8002322
:1048E000002BF5D1202180F83E10016B012909D160
:1048F00001680C3151E8002F22F0100241E800233A
:10490000002BF5D1016B012902D0FEF72DFF10BD60
:10491000818DFEF7A1FC10BD10B5806B016B0129E4
:1049200002D0FFF723F810BD818D4908FEF794FCF3
:1049300010BD01680C3151E8002F22F4907241E85B
:104940000023002BF5D10168143151E8002F22F02B
:10495000010241E80023002BF5D1016B012909D1A7
:1049600001680C3151E8002F22F0100241E80023C9
:10497000002BF5D1202180F83E1000210163704703
:1049800001680C3151E8002F22F0C00241E80023F9
:10499000002BF5D1202180F83D10704708B590F824
:1049A0003E10222901D0022008BD82684FF48053B6
:1049B0009A4201D1016921B1816A9A421BD04AB160
:1049C0000AE00268816A5268C2F308020A80816ABA
:1049D000891C08E0026972B10268526802F07F0225
:1049E0000A70816A491C8162C18D491E0904090C43
:1049F000C18503D019E002685268F1E70168CA680E
:104A000022F02002CA600168CA6822F48072CA607B
:104A100001684A6922F001024A61202180F83E10B3
:104A2000016B012903D0FEF79FFE002008BD002185
:104A3000016301680C3151E8002F22F0100241E8B7
:104A40000023002BF5D101680A68D20602D50A6856
:104A500049680091818DFEF7FFFBE6E770B50446DB
:104A600000680169E26821F4405111430161216944
:104A7000A068E26908436169114308432168CA6874
:104A800049F20C639A430243CA6020684169A269F3
:104A900021F440711143416131492068884202D0BC
:104AA0003049884202D1FEF7DFF801E0FEF7CCF88A
:104AB000E2690023192164253226B2F5004F6268AD
:104AC00028D0A0FB0101930F9200FBF77BFB01466E
:104AD000B0FBF5F06FF01802504301EB800006EBDD
:104AE0000010B0FBF5F000F0F002B1FBF5F002EBC6
:104AF0000012B1FBF5F06FF01803584301EB800092
:104B000006EB0010B0FBF5F000F00F002168104438
:104B1000886070BDA0FB010192185B41FBF752FB5E
:104B20000146B0FBF5F00201B1FBF5F06FF01803A0
:104B3000584301EB800006EBC000B0FBF5F000F03D
:104B4000F80002EB4002B1FBF5F0584301EB8000A6
:104B500006EBC000B0FBF5F000F00700D6E7000060
:104B6000001001400014014038B5816282850025A3
:104B7000134604460564222084F83E00A26B1C48BC
:104B8000D063A26B1B481064A26B1B48D064A06B5F
:104B90000A4605652168A06B091DFDF7DDFD20684B
:104BA00001684068009084F83C50206948B1206852
:104BB0000C3050E8001F41F4807140E80012002AD8
:104BC000F5D12068143050E8001F41F0010140E8A1
:104BD0000012002AF5D12068143050E8001F41F07F
:104BE000400140E80012002AF5D1002038BD000045
:104BF00097480008194900084D48000881628285DD
:104C0000C28500210164222280F83E2080F83C10F9
:104C1000016921B10168CA6842F48072CA60016802
:104C20004A6942F001024A610068C16841F020010E
:104C3000C160002070472DE9F041984617460E46A6
:104C40000446069D27E0681C25D02DB1FDF7C0FE67
:104C5000A0EB0800A8421ED920680C3050E8001FC5
:104C600021F4D07140E80012002AF5D120681430F8
:104C700050E8001F21F0010140E80012002AF5D1A0
:104C8000202084F83D0084F83E00002084F83C0099
:104C90000320BDE8F0812068006836EA000004D0F7
:104CA0000020B842CFD00020F3E70120F9E7000050
:104CB00010B50448FEF70AFBBDE81040014800F0BB
:104CC00003B80000940400200068094982B08842BB
:104CD0000CD1084800680168C943C90606D40168B8
:104CE00040680090034802B000F006B802B0704778
:104CF000004400409404002010B50A48FEF7ADFAC5
:104D00000848A430006840684FF4C872C0F5C87104
:104D10000548C18001210170BDE8104003490148E8
:104D2000FEF7F8BC94040020140000205802002074
:104D3000FEE700000FB4054B10B503A9044A029822
:104D400000F00CFA10BC5DF814FB0000095E0008CE
:104D50001C0000200FB4084B10B504A902AA039848
:104D600000F0FCF9044602A9002000F085FD204671
:104D700010BC5DF814FB0000795800087CB50C00ED
:104D80001D461646014601D0601E00E00020CDE918
:104D90000010064B6A462946304600F0DFF9002C29
:104DA00002D0009A002111707CBD000063580008F9
:104DB0000907090E002804DB00F1E02080F8001448
:104DC000704700F00F0000F1E02080F8141D7047DC
:104DD00030B528B1144C031F002021680A4605E0B5
:104DE000084630BD9A4203D810465268002AF9D1CD
:104DF000002800D041680BD00468A3EB0005A54251
:104E000004D11B681C440346046002E0436000E0D8
:104E100023603AB11C68D51AA54203D115682C4409
:104E20001C6052685A6030BD8C0000202DED020BD2
:104E3000019820F0004001909DED000B02B07047FA
:104E40002DE9F0412DED020B9FED3D0B2DED028B79
:104E50009FED3D8BDDE90254C4F30A50A0F2FF360A
:104E6000142E37DA002E18DA53EC102B9DED020BBE
:104E700051EC100BFBF7A4FC53EC182BFBF790FE46
:104E800057D2002CA4BF0024254652DA24F000405B
:104E9000284318BF2E4C4CD01AE02E4820FA06F7B3
:104EA00004EA070028431FD053EC102B9DED020BA2
:104EB00051EC100BFBF784FC53EC182BFBF770FE46
:104EC00037D2002C03DA4FF48010F0400444BC4386
:104ED00000252EE0332E07DCA6F114004FF0FF3141
:104EE00021FA00F73D4206D19DED020BBDEC028B8D
:104EF00002B0BDE8F08153EC102B9DED020B51EC9C
:104F0000100BFBF701FD53EC182BFBF749FE10D2F9
:104F1000002C0DDA142E08BF641C09D0C6F1340031
:104F2000012101FA00F02844A84238BF641C05465C
:104F3000BD43CDE902549DED020BD7E70000000010
:104F40009C7500883CE4377E0000000000000000F3
:104F50000000F0BFFFFF0F002DE9F04782460F4C25
:104F600010480D4E0E4F001B4FF0000820F00705B3
:104F70004FF0010900221146504600F0A1FF002821
:104F800002D1306810B10020BDE8F0873C60C4E970
:104F90000058C6F80090EDE7900000200C060020B5
:104FA0008C0000200812002002E008C8121F08C16F
:104FB000002AFAD170477047002001E001C1121F9A
:104FC000002AFBD1704700002DE9FF5F82B000216D
:104FD000DDE90430020DDDF840B0034318D044F69B
:104FE0001050A2F2FF3242431514119801281FD02D
:104FF000A5EB0B00401C5FEA000A4FF000064E4F85
:10500000DFF83891B046504615D5CAF1000413E0D8
:10501000119801244AA3012801D16FEA0B010298DB
:10502000119AC0E90031C0E9024206B0BDE8F09F24
:10503000CBF10000DFE704460021404A491842EB6B
:105040000450CDE9001012E0E00707D032463B469D
:1050500040464946FBF75BFC8046894632463B4664
:1050600010461946FBF753FC06460F466410002C09
:10507000EAD1DDE90401DDE90023BAF1000F06DA27
:10508000FBF745FC42464B46FBF741FC05E0FBF7CE
:10509000B0FC42464B46FBF7ACFC04460E460022F1
:1050A000284BFBF77DFD03D84FF0FF30014607E0AA
:1050B0000022254B20463146FBF782FBFBF7CEFE54
:1050C000102409E0002C0ADB0A220023FBF77AF8FF
:1050D000039B30321A55641E50EA0102F2D1641C5F
:1050E000039AC4F111031444119A012A03D0012236
:1050F00008430DD10AE0084304D000204FF0110B03
:10510000119072E7A3EB0B056D1E0DE05B4504DD0E
:105110004FF0000205F1010504E003DA4FF0000250
:10512000A5F10105002AECD002981199C0E90231DD
:10513000C0E9004579E70000000014400000F03F9E
:10514000300000000000F0430000E03F30380A2843
:1051500001D2012070470020704700002DE9FF4F69
:1051600095B09A46884606460025EEE1252877D177
:1051700000242746F94A0121039400E0044316F86D
:10518000013F203B01FA03F01042F7D130782A2882
:1051900011D06FF02F033078A0F13002092A16D811
:1051A000039A44F0020402EB820203EB4202104431
:1051B000761C0390EFE758F8042B0392002A03DAD9
:1051C000504244F40054039044F00204761C3078BA
:1051D0002E2816D116F8010F44F004042A280DD009
:1051E0006FF02F023078A0F13003092B09D807EBBC
:1051F000870302EB4303C718761CF3E758F8047BD8
:10520000761C30786C280FD006DC4C2817D0682824
:105210000DD06A2814D104E0742810D07A280FD158
:105220000DE044F400140AE044F4801401E044F476
:1052300040147278824202D104F58014761C761CE8
:10524000307866280BD013DC582877D009DC00288A
:1052500075D04528F6D04628F4D047281AD193E1D6
:1052600018E0632835D0642879D0652812D18BE105
:10527000702873D008DC6728F1D069286FD06E28B9
:105280000DD06F2806D1ACE073282CD0752874D0CF
:10529000782853D05246179990476D1C54E1C4F3B7
:1052A0000250022809D003280DD0D8F80010042895
:1052B0000DD00D6008F1040846E1D8F80010EA1797
:1052C000C1E90052F6E7D8F800100D80F2E70D7042
:1052D000F0E718F8041B8DF8001000208DF801008D
:1052E000EB46012003E058F804BB4FF0FF306107A4
:1052F0004FF0000102D40DE009F101018946B942E5
:105300000FDA8145F8DB1BF809100029F4D108E019
:1053100009F1010189468142FADB1BF809100029D5
:10532000F6D103985346A0EB090721463846179A51
:1053300000F080FA284400EB090507E044E008E1AA
:105340000DE01BF8010B524617999047B9F101097E
:10535000F7D2534621463846179AF2E039E00A213F
:10536000C4F302524FF0000B0091022A06D058F805
:10537000040BC117032A09D00AE023E008F1070053
:1053800020F00702F2E80201904605E000B2C117E2
:10539000042A01D140B2C117002906DA0A460021C9
:1053A000404261EB02012D2202E0220504D52B22AE
:1053B0008DF80420012203E0E20701D02022F7E764
:1053C000914657E00A2100E010214FF0000B0091B8
:1053D0000BE010214FF0000B44F00404082700916B
:1053E00003E008204FF0000B0090C4F30252022AA1
:1053F00005D058F8040B0021032A08D008E008F172
:10540000070020F00702F2E80201904603E080B2B4
:10541000042A00D1C0B24FF0000922072AD5327801
:10542000702A07D0DDF800C08CF0100C5CEA0B0C81
:1054300005D00EE040228DF80420012208E050EA59
:10544000010306D030238DF804308DF805200222A8
:105450009146009B83F0080353EA0B030AD150EAFC
:10546000010201D1620705D530228DF804204FF0EA
:1054700001097F1E3278582A04D039A20C920CAA56
:1054800002920BE03BA2F9E75B46009AFAF79AFE1C
:105490000C9B9B5C029A521E0292137050EA01020E
:1054A000F2D1029804A9081A00F1200B600702D576
:1054B00024F4803400E001275F4502DDA7EB0B00F8
:1054C00000E0002000EB0B01009003984944401AD3
:1054D0000390E00306D453462146179A039800F040
:1054E000A9F90544002706E001A85246C05D1799B6
:1054F00090476D1C7F1C4F45F6DBE0030CD55346EF
:105500002146179A039800F095F9054404E03020ED
:105510005246179990476D1C0099481E009000292B
:10552000F5DC08E00298029952460078491C029185
:10553000179990476D1CBBF10001ABF1010BF1DC39
:105540005BE100F065F90544761C307800287FF4B3
:105550000DAE19B02846BDE8F08F00000928010003
:1055600030313233343536373839616263646566D9
:10557000000000003031323334353637383941429B
:105580004344454600000000600700D4062708F1A8
:10559000070020F00700F0E80223804603F0004CEB
:1055A0005FEA0C0001D097A009E0200501D596A084
:1055B00005E0E00701D095A001E0AFF24C001390A8
:1055C000307823F0004365280CD006DC452809D04C
:1055D00046281DD047287FD13BE0662818D0672891
:1055E0007AD136E00021112F01DB112000E0781C78
:1055F000CDE9000104A90CA8FFF7E6FCDDE90D01E7
:105600000C9A4FF0000B07F10109109200914EE047
:105610004FF000400097CDE9011004A90CA8FFF756
:10562000D3FCDDE90D020C9B0F994FF0000B914666
:105630001093009211B9791C00EB0109B7EB090036
:1056400003D4C0F1FF3B07F10109A9EB070001906A
:1056500042E0012F00DA01270021112F01DD112086
:1056600000E03846CDE9000104A90CA8FFF7ACFC26
:10567000DDE90D010C9A00914FF0000BB946109234
:1056800021070FD4009A4A4503DA914601E0A9F1B7
:105690000109B9F1010F05DD109AA9F10101515C71
:1056A0003029F4D0B84202DA10F1040F03DA0121F4
:1056B000CDE9011010E0002803DC8344A9EB0001D0
:1056C00002E0411C494500DD8946A0EB0B00401C6F
:1056D00001904FF000400290200705D40198484502
:1056E00002DB4FF0FF30019000208DF84B00029854
:1056F0000DF14B07B0F1004F25D002200C902B206C
:105700000D90029800280CDA404202902D200D9056
:1057100007E00A210298FBF777FA3031029007F888
:10572000011D0C99481E0C900029F2DC02980028FB
:10573000EFD1791E0D980870307800F0200040F00D
:10574000450007F8020D11A8C01BC01D0290139858
:10575000007800B1012000EB0901019801EBE07134
:10576000029801440398401A401E0390E00306D4B7
:1057700053462146179A039800F05CF805441398A5
:10578000007818B15246179990476D1CE00323D555
:1057900053462146179A039800F04CF805441BE045
:1057A000BBF1000F07DB0098584504DD10981799EE
:1057B00010F80B0001E017993020524690470198ED
:1057C0000BF1010B401E05F10105019004D12E20C3
:1057D0005246179990476D1CB9F10001A9F10109D2
:1057E000DEDC05E017F8010B5246179990476D1C57
:1057F0000299481E02900029F4DC53462146179A6C
:1058000003989EE62D0000002B0000002000000001
:105810002DE9F041044600251E461746880404D4AD
:1058200005E039462020B0476D1C641EF9D5284696
:10583000BDE8F0812DE9F041044600251E46904662
:10584000C80301D5302700E02027880404D505E0EF
:1058500041463846B0476D1C641EF9D52846BDE860
:10586000F0814A68002A06D00A68531C0B60107049
:105870004868401E486070470A68531C0B601070EF
:10588000704711B108B1884201D100207047826889
:105890003AB152681AB111604A60806841600120D3
:1058A000704781600020C1E90001F8E72DE9F0416F
:1058B00006000698984614460D4621D005B3FCB163
:1058C000A6421DD018B1E06840F4007708E0194600
:1058D000284600F0F1F8050012D0E06820F40077C7
:1058E000A089800504D4206A10B1D8F80410884734
:1058F000E760214630462562BDE8F041FFF7C1BFB1
:105900000020BDE8F081000008B500230093024BA1
:10591000FFF7CCFF08BD00008000002010B518483C
:105920002DED028BB0EE408AF0EE608A00F07DF83B
:10593000040020D00820E0609FED120B84ED068B60
:1059400053EC102B51EC180BFBF72AF902D86FF02F
:1059500000400FE09FED0D0B51EC180B53EC102B9A
:10596000FBF706F902D84FF0004003E051EC180BAA
:10597000FBF7CCF860612046BDEC028B10BD000047
:10598000800000200000C0FFFFFFDF41000000009A
:105990000000E0C110B5044800F047F8002801D02D
:1059A0004021C16010BD00008000002070B5054698
:1059B000094800F03AF8040007D01020E0600649DA
:1059C000284600F079F8206108B1204670BD2046D5
:1059D00000F004F8002070BD8000002070B504467F
:1059E0000F4E19E0A0892568C0050AD4A06820B12F
:1059F000FFF7F4FFA089C00503D4206908B17168DE
:105A00008847A089800503D4206A08B17168884757
:105A10007168204688472C46002CE3D170BD0000F9
:105A200080000020002200F0FBB910B5016828209A
:105A30008847040002D02821FAF714FC204610BD44
:105A4000014A002100F0F2BA8000002010B504469F
:105A50002DED028BB0EE408AF0EE608A9FED120BC6
:105A600051EC180B53EC102BFBF79AF802D86FF09F
:105A700000400FE09FED0E0B51EC180B53EC102B78
:105A8000FBF776F802D84FF0004003E051EC180B1A
:105A9000FBF73CF8B0EE480AF0EE680A606184ED6E
:105AA000060BBDEC028B10BD0000C0FFFFFFDF4105
:105AB000000000000000E0C170B50E4605000DD0EA
:105AC000FAF7EDFB401C316804468847060005D014
:105AD00022462946FAF7ADFB304670BD002070BD66
